:1000000057C000000C940F250C94362579C00000D1
:1000100077C0000075C0000073C0000071C0000010
:100020006FC000006DC000006BC0000069C0000020
:1000300067C000000C944B2263C0000061C0000048
:100040000C945D255DC000000C94A3270C94D5276B
:1000500057C0000055C0000053C0000051C0000050
:100060004FC000004DC00000010204081020408075
:1000700001020408102001020408102004040404F2
:100080000404040402020202020203030303030342
:1000900000000000230026002900000000002500C9
:1000A00028002B0000000000240027002A00FA2767
:1000B00011241FBECFEFD8E0DEBFCDBF11E0A0E01E
:1000C000B1E0E8E7F1E502C005900D92A43CB1076C
:1000D000D9F724E0A4ECB1E001C01D92A53FB2071E
:1000E000E1F710E0C8E5D0E004C02197FE010E94CE
:1000F0008B28C735D107C9F70E9449230C94BA2829
:100100007FCFFC01A781B0858C9191858923A48143
:10011000B5819C91408151816281738126819223B6
:1001200059F081110BC04F5F5F4F6F4F7F4F40837E
:1001300051836283738308958111F5CF4150510932
:1001400061097109F4CF85EC91E0DBCF80ED91E09E
:10015000D8CF8BED91E0D5CF86EE91E0D2CFFC01E8
:10016000A481B5818C9196818923A781B0859C91CA
:1001700040815181628173812185922359F08823C6
:1001800059F04F5F5F4F6F4F7F4F408351836283C2
:10019000738308958823A9F34150510961097109B6
:1001A000F4CF85EC91E0DBCF80ED91E0D8CF8BED03
:1001B00091E0D5CF86EE91E0D2CF0F931F93CF93EE
:1001C000DF93082F162FEA01A091C4018BE0A89FAE
:1001D000D0011124AB53BE4F1D921D921D921C9253
:1001E000139781E01A968C931A97802F90E0FC0168
:1001F000E859FF4FE4911696EC931697FC01E458EA
:10020000FF4FE491F0E0EE0FFF1FE057FF4F8591A5
:10021000949115969C938E931497862F90E0FC01F1
:10022000E859FF4FE4911996EC931997FC01E458B3
:10023000FF4FE491F0E0EE0FFF1FE057FF4F859175
:10024000949118969C938E93179760E0802F0E944C
:100250003D2660E0812F0E943D268091C4018130BF
:1002600081F1A0F0823009F445C0833009F45BC00D
:100270008091C40191E0980F9093C401888390E02D
:1002800080E0DF91CF911F910F91089580E00230BF
:1002900021F08FEF033009F481E041E050E063EAA0
:1002A00070E00E94EF2480E0123021F08FEF1330D5
:1002B00009F481E041E050E061ED70E00E94EF243C
:1002C000D7CF80E0023021F08FEF033009F481E0D6
:1002D00041E050E066EA70E00E94EF2480E01230D6
:1002E00021F08FEF133009F481E041E050E064ED3C
:1002F00070E0E4CF80E0023021F08FEF033009F4AA
:1003000081E041E050E069EA70E00E94EF2480E083
:10031000123021F08FEF133009F481E041E050E01A
:1003200067ED70E0CBCF80E0023021F08FEF03303B
:1003300009F481E041E050E06CEA70E00E94EF24B3
:1003400080E0123021F08FEF133009F481E041E0BA
:1003500050E06AED70E0B2CF9BE0899FF00111247C
:10036000EB53FE4F80819181A281B381FB01808399
:100370009183A283B38390E080E008959BE0899FFE
:10038000F0011124EB53FE4F10821182128213826E
:1003900090E080E0089590E080E0089590E080E0B3
:1003A00008950F931F93009709F487C06115710595
:1003B00009F483C000910401109105012091060108
:1003C000309107010E3F1F4F2F4F3F4F09F066C07E
:1003D0004FEF5FEFBA014093040150930501609322
:1003E000060170930701409104015091050160914D
:1003F000060170910701DC011296ED91FC9180815C
:100400009181A281B3818093590290935A02A09363
:100410005B02B0935C0284819581A681B781809351
:10042000550290935602A0935702B09358028085CC
:100430009185A285B3858093510290935202A09337
:100440005302B093540284859585A685B785809321
:100450004D0290934E02A0934F02B093500210921F
:10046000490210924A0210924B0210924C021DD483
:100470008AE796E09093F2018093F1019093F40162
:100480008093F30101D3009731F421E030E0309301
:100490005E0220935D021F910F9108950091040167
:1004A000109105012091060130910701DB010D93A8
:1004B0001D932D933C93139796CF8FEF9FEFEBCF28
:1004C0008F929F92AF92BF92CF92DF92EF92FF9264
:1004D0001F93CF93DF934B015C011091600282E088
:1004E00090E090935E0280935D0281149104A104D8
:1004F000B10441F480916002811104C080915F02D7
:10050000C1E08111C0E0C12CD12C76018091600244
:10051000811106C080915F02811102C0CC23D1F00D
:1005200083E090E090935E0280935D02CC2371F1B2
:10053000CCE9DFEF111101C041D7CE01DF91CF919E
:100540001F91FF90EF90DF90CF90BF90AF909F9062
:100550008F9008956AE070E080E090E00E94CC25E2
:1005600080E1C80E87E2D81EE11CF11C8FEF8816CF
:100570009806A806B80631F0C1E08C149D04AE04BC
:10058000BF0408F0C0E080E0B3D2C0CFD0E0C0E04C
:10059000D1CFCF92DF92EF92FF920F931F93CF9321
:1005A000DF938F3F910511F008F050C020915D025C
:1005B00030915E022330310539F020915D02309197
:1005C0005E022130310531F424E030E030935E02E8
:1005D00020935D026A017B01EC0182309105A0F05D
:1005E00011E0AE01C701B6014ED2AB01BC01CE0194
:1005F0001123F9F0DF91CF911F910F91FF90EF90B0
:10060000DF90CF900C94070C8C01000F111F0F503E
:100610001E4FD8018D919C91892B11F30E94110CD2
:100620000297F1F6D801ED91FC91CE010995182FB2
:10063000D8CF0E94290C90E080E0DF91CF911F91EC
:100640000F91FF90EF90DF90CF9008958FEF9FEF85
:10065000F4CF80E04DC2CF93DF9386E090E090939B
:100660005E0280935D029DD2EC01E1EFF1E084E057
:10067000DF011D928A95E9F739D610925E02109239
:100680005D02CE01DF91CF91089580915F020895C0
:10069000809148020895609304017093050180934E
:1006A00006019093070190E080E00895CF92DF92D9
:1006B000EF92FF92C0900001D0900101E090020102
:1006C000F0900301A70196016091EE047091EF0490
:1006D0008091F0049091F1040E94D123882341F08D
:1006E000C092EE04D092EF04E092F004F092F10494
:1006F0008091ED0481111092ED0463EE74E080911D
:10070000F2042ADE60911F02709120028091210282
:10071000909122026F5F7F4F8F4F9F4F60931F0218
:100720007093200280932102909322020E94D5238D
:100730009B01AC01609123027091240280912502FB
:10074000909126020E943A2460931B0270931C022F
:1007500080931D0290931E02FF90EF90DF90CF9048
:100760000895CF93DF93E5E0F2E080E090E0A0E829
:10077000BFEB82A393A3A4A3B5A38AE097EDA3E262
:10078000BCE3868F978FA0A3B1A38BE99AEFA5ED69
:10079000B9E884839583A683B78385EE9DECA7E2B1
:1007A000B6EC80879187A287B3878CEE96EBA1EE9B
:1007B000BEEE84879587A687B7878AEA9FEBA0EE6F
:1007C000B9EE808B918BA28BB38BA9EFB1E0B38391
:1007D000A283E5EFF1E01196FC93EE9381E391E0C3
:1007E000918380839383828389E192E015969C9321
:1007F0008E93149789E092E013969C938E931297B0
:100800008BE192E017969C938E931697C7EED4E0F7
:100810001B8618828091000190910101A091020134
:10082000B09103018F839887A987BA8781E090E010
:10083000A0E0B0E089839A83AB83BC8342EF54E0AD
:1008400063E082E0BADC81E08D831E828B85DF91DC
:10085000CF9194CD8091E704811113C081E0809302
:10086000E7048091E8049091E904A091EA04B09132
:10087000EB040197A105B10521F48091EC048111ED
:100880008ACD08954F925F926F927F928F929F923E
:10089000AF92BF92CF92DF92EF92FF920F931F938E
:1008A000F894409038025090390260903A0270906B
:1008B0003B02C0902C02D0902D02E0902E02F090CE
:1008C0002F02452B09F0A4C09B01AC012419350966
:1008D0004609570929013A01009134021091350265
:1008E000209136023091370248015901840C951C41
:1008F000A61CB71C80169106A206B306A0F40091B0
:1009000030021091310220913202309133020F5F98
:100910001F4F2F4F3F4F009330021093310220930F
:100920003202309333028092340290923502A092C8
:100930003602B092370200913002109131022091BC
:1009400032023091330280923C0290923D02A0929A
:100950003E02B0923F020093400210934102209366
:1009600042023093430260933802709339028093BD
:100970003A0290933B02A0E1B7E2A30192010E94E8
:1009800091286C0D7D1D8E1D9F1D60932C02709310
:100990002D0280932E0290932F020091040110915A
:1009A000050120910601309107010F3F1F4F2F4F86
:1009B0003F4FF1F0009104011091050120910601D3
:1009C000309107010E3F1F4F2F4F3F4F89F0C090CE
:1009D0000401D0900501E0900601F090070121E0AC
:1009E0008C149D04AE04BF0408F420E02093480258
:1009F00078941F910F91FF90EF90DF90CF90BF9070
:100A0000AF909F908F907F906F905F904F900895E0
:100A10004B015C0184189508A608B708A301920150
:100A2000261B370B480B590B641575058605970572
:100A3000D0F082169306A406B50640F420E030E01C
:100A4000A90181149104A104B10491F4A0E1B7E2D9
:100A50000E949128A7019601261B370B480B590BC2
:100A6000CA01B901C5CF82169306A406B50670F770
:100A7000A0E1B7E2A50194010E9491286C0D7D1DB3
:100A80008E1D9F1DB5CFFECECF93DF9300D000D03B
:100A9000CDB7DEB71C821B821A82198210924402E3
:100AA000109245021092460210924702BE016F5FFB
:100AB0007F4FCE0103960E942F2269817A818B811C
:100AC0009C810E94281B009761F4BE016F5F7F4FDD
:100AD000CE0103960E943B2269817A818B819C81A1
:100AE0002CD50F900F900F900F90DF91CF9108951C
:100AF000FF920F931F93CF93DF93082F60E070E076
:100B0000CB010E94CC25FF24F3940E94131AEC0120
:100B1000892B89F010E0CE3F8FEFD80769F00023D2
:100B200061F160E070E0CB010E94CC2581E090E0B3
:100B3000892B59F322C011E023D5EC01892B21F038
:100B4000CE3F8FEFD80759F711111EC011E0229642
:100B500009F410E00E94C419EC01892B21F0CE3F6A
:100B60008FEFD807E1F6111111C011E0CE3F8FEFE2
:100B7000D80709F410E001110BC0CE01DF91CF912D
:100B80001F910F91FF90089511E0E4CF11E0F3CF92
:100B900060E070E0CB010E94CC251F25812F90E002
:100BA000C7CFCF93DF9380914802882321F060E084
:100BB00070E0CB014CD635D6D0E0C0E0892B71F087
:100BC0006AE070E080E090E00E94CC2581E090DF58
:100BD00028D62196C03D27E0D20781F727D60E946C
:100BE0007C1B1092600210925F02109259021092C8
:100BF0005A0210925B0210925C02109255021092FF
:100C000056021092570210925802109251021092FE
:100C10005202109253021092540210924D021092FE
:100C20004E0210924F0210925002109249021092FE
:100C30004A0210924B0210924C024EEF5FEF6FEFA0
:100C40007FEF409304015093050160930601709378
:100C5000070110924802ECE3F2E028E0DF011D9268
:100C60002A95E9F7109238021092390210923A024E
:100C700010923B021092340210923502109236020A
:100C8000109237021092300210923102109232020A
:100C90001092330210922C0210922D0210922E020A
:100CA00010922F02DF91CF91089510926C02109252
:100CB0006D0210926E0210926F0210926B02809180
:100CC00074029091750290936A0280936902109267
:100CD00068021092670210926302109264021092EE
:100CE000650210926602109271021092700290E0FA
:100CF00080E00895CF92DF92EF92FF920F931F93BF
:100D0000CF938C01892B09F055C02091740230914A
:100D100075028091690290916A024091740250912B
:100D2000750250936A02409369022817390781F0CF
:100D3000109268021092670210926302109264028D
:100D40001092650210926602109271021092700267
:100D50008091740290917502019761F58091700203
:100D600090917102892B21F480910801811112C0A8
:100D700080917002909171020197E1F48091630279
:100D800090916402A0916502B09166020197A1055D
:100D9000B10581F410926302109264021092650210
:100DA000109266021092080182E090E09093710226
:100DB000809370028091740290917502019709F0FE
:100DC0001CC180918A0290918B028017910709F0D3
:100DD00014C18091860290918702A0918802B091FF
:100DE0008902009709F409C12091850221110DC0E3
:100DF0004091860250918702609188027091890229
:100E0000452B462B472B09F4F8C0209170023091F6
:100E100071022230310509F0F0C0209167022111E2
:100E2000ECC0FC01C080D180E280F38080916B0235
:100E3000882309F4D3C08091770290917802892B9E
:100E400009F4FDC0209177023091780281E02230D0
:100E5000310509F080E02091770230917802C1E0FD
:100E60002130310549F02091770230917802C1E0BC
:100E70002230310509F0C0E0882309F456C02091E2
:100E80008102309182024091830250918402C70115
:100E9000B6010E94362487FD14C020918102309152
:100EA0008202409183025091840260916C027091A1
:100EB0006D0280916E0290916F020E94D12387FD96
:100EC00022C0209181023091820240918302509190
:100ED0008402C701B6010E943624181634F5209109
:100EE000810230918202409183025091840260918C
:100EF0006C0270916D0280916E0290916F020E945F
:100F0000D123811112C08091790290917A02A0912F
:100F10007B02B0917C02892B8A2B8B2B19F481E008
:100F20008093680281E080936702CC2309F456C065
:100F3000209181023091820240918302509184027B
:100F4000C701B6010E94D12387FF14C020918102FE
:100F500030918202409183025091840260916C0230
:100F600070916D0280916E0290916F020E94362402
:100F700087FF22C02091810230918202409183023A
:100F800050918402C701B6010E94D123811126C06D
:100F9000209181023091820240918302509184021B
:100FA00060916C0270916D0280916E0290916F025F
:100FB0000E943624181694F48091790290917A0256
:100FC000A0917B02B0917C02892B8A2B8B2B19F488
:100FD00081E08093680281E08093670281E09091D4
:100FE0006702911180E080936B02C0926C02D092F4
:100FF0006D02E0926E02F0926F02012B09F067C160
:101000008091700290917102892BD9F4109276022E
:101010001092670280910801882379F082E090E0C5
:1010200090937102809370021092080120917402D3
:101030003091750281E0232BE9F080E01BC081E054
:101040000ACF1092080180917602882349F010920D
:101050006802109271021092700210927602EDCF27
:101060008091740290917502892BE1F08091670262
:101070001092670220917002309171022230310586
:1010800009F45EC088F42115310509F448C0213007
:10109000310509F4F3C010926802109267021092B1
:1010A000760238C081E0E6CF2330310509F4B1C0C3
:1010B0002430310581F740916302509164026091C0
:1010C000650270916602411551056105710561F077
:1010D00041505109610971094093630250936402C0
:1010E00060936502709366024091630250916402BE
:1010F0006091650270916602452B462B472BD9F40F
:1011000020917202309173022130310509F046C0FE
:101110001092680210927102109270020CC08091BD
:101120000801882341F082E090E09093710280935F
:101130007002109208011092610280916802CEC084
:101140008823C9F38091790290917A02A0917B0261
:10115000B0917C02181619061A061B060CF07DC009
:101160008091740290917502019709F076C0809188
:10117000790290917A02A0917B02B0917C028093D7
:10118000630290936402A0936502B093660283E0C9
:1011900090E09093710280937002CDCF40917D02D8
:1011A00050917E0260917F0270918002452B462B08
:1011B000472BA9F01092680280917D0290917E02E7
:1011C000A0917F02B09180028093630290936402A9
:1011D000A0936502B093660281E090E0DACF8823A5
:1011E00099F08091090190910A01A0910B01B091B1
:1011F0000C018093630290936402A0936502B09304
:10120000660284E090E0C5CF1092680282E090E030
:10121000C0CF8091630290916402A0916502B09169
:1012200066020097A105B10559F00197A109B1091E
:101230008093630290936402A0936502B093660268
:101240008091630290916402A0916502B091660260
:10125000892B8A2B8B2B09F06ECF809109019091FD
:101260000A01A0910B01B0910C01892B8A2B8B2BC9
:1012700009F44ECF81E080936802B3CF40916302BE
:1012800050916402609165027091660241155105AA
:101290006105710561F0415051096109710940937F
:1012A00063025093640260936502709366024091FA
:1012B0006302509164026091650270916602452B51
:1012C000462B472B09F037CF8111C7CF9FCF809195
:1012D0006102882309F431CF80916202CF911F917E
:1012E0000F91FF90EF90DF90CF90089510926C02D5
:1012F00010926D0210926E0210926F0210926B02A9
:10130000109271021092700210926A021092690299
:1013100010928B0210928A02109268021092670259
:10132000109263021092640210926502109266029B
:10133000109262021092610210928602109287024D
:1013400010928802109289021092850210928102F6
:1013500010928202109283021092840288EE93E02F
:10136000A0E0B0E08093090190930A01A0930B01E3
:10137000B0930C0110927D0210927E0210927F02B7
:10138000109280021092790210927A0210927B02DF
:1013900010927C02109278021092770281E0809382
:1013A0000801109276021092750210927402109247
:1013B00073021092720290E080E0089580917402AE
:1013C00090917502892B19F580910801882351F0BD
:1013D00080917602811106C081E080936202809341
:1013E00061020895209176023091080181E090E039
:1013F000332311F090E080E030E082239323892BA7
:1014000021F01092620281E0EACF10926102089509
:1014100082E090E0FA01918380838FEF9FEF08953F
:10142000CF93DF93EA01009711F00E94991C198273
:10143000188290E080E0DF91CF910895DB01009762
:1014400019F48FEF8C9308952EEF2C930F968F3015
:10145000910508F033C0FC01E05DF54F0C948B283A
:101460005C0A5A0A580A560A540A500A520A4E0A84
:101470004C0A4A0A470A430A3F0A450A5E0A80E3C1
:1014800011968C93089589E2FBCF82E2F9CF1196F1
:101490001C92089583E2F4CF81E2F2CF81E1F0CF94
:1014A00087E2EECF8AE2ECCF80E1EACF84E2E8CFB8
:1014B00088E2E6CF86E2E4CF81E3E2CF80E2E0CFCC
:1014C0008091980290919902089590939902809347
:1014D0009802089580919702089590919702892B20
:1014E000809397020895982F909580919702892371
:1014F00080939702089580919602089580919402B6
:101500009091950208956115710559F0FB0130E045
:1015100020E070E060E02417350719F061157105CF
:1015200011F0CB010895A081B181A817B90709F482
:10153000BF012F5F3F4F3696EECF80919A02811107
:101540001CC062D268D290938D0280938C020E945C
:101550009E140E94B01490939102809390020E9476
:101560002E190E94351990938F0280938E0281E08C
:1015700080939A0290E080E0089584EF9FEF0895B1
:101580008F929F92AF92BF92CF92DF92EF92FF9293
:101590000F931F93CF93DF93CDB7DEB72A970FB684
:1015A000F894DEBF0FBECDBF1A86198618861F823B
:1015B0001E821D821C821B821A82198280919A02CD
:1015C00007EF1FEF882309F49CC08E010D5F1F4FAA
:1015D0009E012B5F3F4FAE01495F5F4FBE01675FCA
:1015E0007F4F90E080E00E94AE1A8C01009721F0BE
:1015F0000596029708F0DBC029853A85211531054B
:1016000009F402C1ED80FE804B815C81B701640F5B
:10161000751F8F8198858617970708F4F5C0E20E2D
:10162000F31ED7019C91903C09F07FC042305105D8
:1016300008F47BC011968C914091980250919902C8
:10164000452B09F49CC0913F08F071C02CE1290F93
:101650002D3008F48BC02DE2290F203108F489C009
:10166000903C21F48150823008F483C088E3890FD4
:101670008B3008F481C09EE1C92E9AE0D92EE8E0B3
:10168000FAE06D817E81AE014F5F5F4F89859A855B
:1016900009955C01C114D104A1F189809A8081145B
:1016A000910479F18B819C818815990508F487C094
:1016B00010E000E04B815C8170E060E0C7010E94B7
:1016C000B32801151105E9F449815A8169857A85A4
:1016D0008D819E81680F791FC501F6010995E9800A
:1016E000FA800D811E812F81388549855A856FEFDB
:1016F0007FEF81E090E00E944A1A8C01892B09F06B
:1017000056C0C8012A960FB6F894DEBF0FBECDBFF3
:10171000DF91CF911F910F91FF90EF90DF90CF90CD
:10172000BF90AF909F908F90089580E085CF30E07C
:1017300020E0220F331FF901E457FD4F0190F081A3
:10174000E02D309709F497CF892F90E00995009705
:1017500009F491CFDC011296ED91FC911397149648
:10176000CD90DC90309709F08CCF1FC021E030E0A5
:10177000E0CF22E030E0DDCF23E030E0DACFD12C43
:10178000C12CE0E1FAE09F3F09F07BCFE0918C02B1
:10179000F0918D02309721F4C90104EF1FEF0CC0C6
:1017A0008FEF90E009950097A9F604EF1FEF898568
:1017B0009A85009709F4A5CF0E94991CA2CF0E9498
:1017C000771B8C0189859A850E94991C70E060E0E6
:1017D000C4010E94101B98878F830E94471A9E8322
:1017E0008D836F8178856115710559F0C8010E945C
:1017F000251E9A87898706EF1FEF892B09F058CF9E
:1018000059CF08EF1FEF56CF08EF1FEFD0CF209131
:101810009A02222319F020E00C94B51487EF9FEF71
:101820000895809198029091990208950E943A1922
:101830000E949418F5D0ECE8F2E088E0DF011D92F8
:101840008A95E9F710929A0290E080E008950C944E
:10185000F11621E040E050E0BA010C94B51486E0A6
:1018600090E0FA019183808390E080E0089547E062
:1018700050E064E371E047CEDF92EF92FF920F9366
:101880001F93CF93DF938A01EC01C60FD71FE0901F
:101890009E02F0909F02D9800E945F1BD816190605
:1018A00078F082E090E0F801918380838EEF9FEFE3
:1018B000DF91CF911F910F91FF90EF90DF900895EE
:1018C000EF2841F482E090E0F8019183808384EF77
:1018D0009FEFEECF898180939D0290E00196F80101
:1018E0009183808390E080E0E3CFCF93DF93EA01A0
:1018F0000E94A217882321F00E946C1B0E94A3174C
:1019000082E090E0998388838BEF9FEFDF91CF9106
:101910000895CF93DF93EB0186E0FB0111928A9546
:10192000E9F78FEF8883D6DD8983E5DD8A83E6DDFD
:101930009D838C83DF91CF910895CF93DF93EA014C
:101940000E94A517811109C082E090E099838883E5
:1019500085EF9FEFDF91CF91089590E080E0B5DDB6
:1019600081E090E09983888390E080E0F3CF0F934B
:101970001F93CF93DF93EA018C01060F171F0E947C
:10198000A51781110BC082E090E09983888385EFD1
:101990009FEFDF91CF911F910F910895F801818101
:1019A000823038F082E090E0998388838EEF9FEF59
:1019B000F0CF81E090E089DD88E090E09983888332
:1019C00090E080E0E6CFCF93DF930097D1F4EB0176
:1019D000FB01329686E0DF011D928A95E9F78FEFD1
:1019E000888385E089831A820E945F1B8B830E9413
:1019F0005E1B9D838C8381E08E838F83DF91CF91EB
:101A00000895DF91CF911ACD87E39CE090939C02DB
:101A100080939B02089580919B0290919C0208956F
:101A200010929C0210929B02089580919E029091C8
:101A30009F020895411105C0611571058105910549
:101A400061F060939E0270939F028093A002909336
:101A5000A1024093A20281E0089580E00895FF92E0
:101A60000F931F93CF93DF938A01EC01C60FD71F0B
:101A7000F9800E945F1BF816190668F082E090E07A
:101A8000F801918380838EEF9FEFDF91CF911F91BB
:101A90000F91FF9008956C817D818E819F814B8194
:101AA000C9DF811108C082E090E0F8019183808352
:101AB00084EF9FEFEACF898180939D0290E00196A9
:101AC000F8019183808390E080E0DFCFCF93DF93B4
:101AD000EA01FC01E60FF71F648175818681978119
:101AE0004381A8DF811109C082E090E09983888357
:101AF00084EF9FEFDF91CF91089581E090E099838B
:101B0000888390E080E0F6CFEEE9F2E040815181F9
:101B100062817381480F511D611D711D4083518386
:101B2000628373830895CF93C0919D024C2F50E040
:101B300060919E0270919F0201960E94AA288C2FAC
:101B4000E3DF10929D02CF910895009799F4809160
:101B50009E0290919F022FEFFB012083892B59F069
:101B600020919D0230E02F5F3F4F2417350719F475
:101B7000CB01D9CF63CC0895009799F480919E0250
:101B800090919F022FEFFB012083892B59F0209128
:101B90009D0230E02F5F3F4F2417350719F4CB012A
:101BA000C2CF4CCC089523E1AC01249FC001259FF6
:101BB000900D1124E091A702F091A802E80FF91FFF
:101BC000238134812250310981E02230310508F02F
:101BD00080E008950F931F93CF93DF930091A902A4
:101BE0001091AA02D0E0C0E080E00C171D0749F474
:101BF00091E0811190E0892FDF91CF911F910F919A
:101C000008958111F5CFCE01CEDF2196EECFA091C0
:101C1000A702B091A802109729F12091A902309152
:101C2000AA0282179307F0F453E1589F9001599F3D
:101C3000300D1124A20FB31FED91FC911197309735
:101C400089F012968C91681768F48DE0689FE00D1A
:101C5000F11D112480819181892B21F081E09281F5
:101C6000491708F080E008959C0143E1429FC001BC
:101C7000439F900D1124E091A702F091A802E80F74
:101C8000F91F8385823091F481E090E0658176814F
:101C900040910D0150910E016417750711F490E009
:101CA00080E0892B19F081E0232B09F080E0089572
:101CB000FC01A081B1818DE0689FA00DB11D1124B0
:101CC00013964D915C9185859685489F9001499F1B
:101CD000300D589F300D1124C9010196611103C0C8
:101CE000478144FD04960895EF92FF920F931F934E
:101CF000CF93DF93EA01FC01E60FF71F0281138106
:101D0000E480F5804F2D6E2DC80181DF81110DC05B
:101D100082E090E0998388838EEF9FEFDF91CF91EF
:101D20001F910F91FF90EF900895C8013CDF882329
:101D300039F082E090E09983888388EF9FEFEECFBF
:101D40001093140100931301E0921501F092160113
:101D500081E090E09983888390E080E0DFCFCF92AC
:101D6000DF92EF92FF920F931F93CF93DF937A014D
:101D7000EC01C60FD71FC0901301D0901401009141
:101D8000150110911601412F602FC60140DF81110E
:101D900010C082E090E0F701918380838AEF9FEF8B
:101DA000DF91CF911F910F91FF90EF90DF90CF9037
:101DB0000895C601F8DE882341F082E090E0F70143
:101DC0009183808388EF9FEFEBCF4C815D816E81A3
:101DD0007F819A8189818F3F41F082E090E0F70115
:101DE000918380838EEF9FEFDBCFE3E1EC9D900149
:101DF000ED9D300D1124E091A702F091A802E20FB1
:101E0000F31F0190F081E02D2DE0029FE00DF11D08
:101E100011240190F081E02D27E0129FE00DF11DCB
:101E20001124808391838B818283438354836583D0
:101E300076831F5F1093160181E090E0F701918394
:101E4000808390E080E0ACCFEF92FF920F931F93DE
:101E5000CF93DF937A018C01060F171FC091A70261
:101E6000D091A802209781F021E030E0F801828132
:101E700093814091A9025091AA028417950710F00E
:101E800030E020E0232B71F482E090E0F7019183B1
:101E900080838EEF9FEFDF91CF911F910F91FF9085
:101EA000EF90089543E1489F9001499F300D112420
:101EB000C20FD31F78DE882341F082E090E0F70163
:101EC0009183808388EF9FEFE6CFF80124813581ED
:101ED00020383105C8F687818111D6CF4181842F02
:101EE00090E08F7E009741F082E090E0F7019183CF
:101EF000808386EF9FEFCFCF4F833E832D83268154
:101F000028871986223010F421E0288721E030E06C
:101F1000F70131832083BFCF88E090E0FA019183FD
:101F2000808390E080E00895FB018FEF808381E162
:101F300081838FEF9FEF9383828380E890E0958386
:101F40008483168217820895FB018FEF808391E0CE
:101F5000918382839383848384E3858381E090E00B
:101F6000978386830895DF92EF92FF920F931F93DA
:101F7000CF93DF93EA01FC01E60FF71F81818130E7
:101F800071F082E090E0998388838FEF9FEFDF917B
:101F9000CF911F910F91FF90EF90DF900895828174
:101FA0009381D4802581E680F7800091A70210916B
:101FB000A8020115110539F482E090E09983888325
:101FC0008CEF9FEFE4CF4091A9025091AA028417B1
:101FD000950738F082E090E0998388838EEF9FEF39
:101FE000D6CF892B39F082E090E09983888386EF01
:101FF0009FEFCDCF8D2D8D7FB1F72130A1F781E0FF
:10200000D11006C091E0E916F10431F080E004C07F
:10201000E2E0EE16F104D0F3882329F390E080E0AB
:10202000C2DD882339F082E090E09983888388EFCD
:102030009FEFADCFF801D38681E08487F686E586F1
:10204000108A178681E090E09983888390E080E091
:102050009ECF4CE050E06EE571E055CA8F929F92A2
:10206000BF92CF92DF92EF92FF920F931F93CF9385
:10207000DF93EA01FC01E60FF71F8281938104815F
:10208000B580E091A702F091A802309791F482E028
:1020900090E0998388838CEF9FEFDF91CF911F9120
:1020A0000F91FF90EF90DF90CF90BF909F908F9017
:1020B00008952091A9023091AA028217930738F05F
:1020C00082E090E0998388838EEF9FEFE6CF23E153
:1020D000289F6001299FD00C1124EC0DFD1DE0808C
:1020E000F180E114F10499F28281081748F78DE03C
:1020F000089F80011124E00EF11EF701808191817B
:10210000892B29F6BB20E1F2F7E0BF9E40011124A4
:10211000C4010E94601CF70191838083E091A702B3
:10212000F091A802EC0DFD1D0190F081E02DE00F73
:10213000F11F80819181009739F482E090E09983CA
:1021400088838DEF9FEFA9CFA40170E060E00E942B
:10215000B3288091A7029091A802C80ED91EF6015B
:1021600080819181080F191FF801B28281E090E00F
:102170009983888390E080E090CFAF92BF92CF9216
:10218000DF92FF920F931F93CF93DF93EA01FC013D
:10219000E60FF71F82819381F4800091A7021091CE
:1021A000A8020115110581F482E090E099838883EB
:1021B0008CEF9FEFDF91CF911F910F91FF90DF90F8
:1021C000CF90BF90AF9008952091A9023091AA02BC
:1021D0008217930738F082E090E0998388838EEF2E
:1021E0009FEFE8CF2FEF2F0D2C3FA8F723E1289F7B
:1021F0006001299FD00C11240C0D1D1DF801808158
:102200009181892B89F6FDE0FF9E50011124C501C3
:102210000E94601CF80191838083E091A702F091F5
:10222000A802EC0DFD1D80819181009739F482E0B8
:1022300090E0998388838DEF9FEFBCCFA50170E07C
:1022400060E00E94B328E091A702F091A802EC0D93
:10225000FD1DF28281E090E09983888390E080E028
:10226000A9CFCF92DF92EF92FF920F931F93CF935C
:10227000DF93860F971FFC01028113818091A702D3
:102280009091A802892B81F082E090E0FA0191837D
:1022900080838CEF9FEFDF91CF911F910F91FF9083
:1022A000EF90DF90CF900895C801B0E0A0E00197D3
:1022B000A109B1098F3F9F4FA105B10540F082E010
:1022C00090E0FA01918380838EEF9FEFE4CF7A0153
:1022D00083E1809F6001819FD00C1124C6010E9480
:1022E000601CEC01009741F482E090E0F7019183DB
:1022F00080838DEF9FEFCFCFA60170E060E00E945A
:10230000B328D093A802C093A7021093AA02009307
:10231000A90290E080E02FEF3FEF41E061E070E044
:102320008017910741F481E090E0F7019183808369
:1023300090E080E0B0CF3A8B298B1B864C877E875C
:102340006D87188A1F8601966396EACFEF92FF92F7
:102350001F93CF93DF93EC0110E0F12CE12C6A8105
:102360001617A8F070E0660F771FAE014F5E5F4F43
:10237000C7010E94C51C009721F02FEF3FEF3A8B59
:10238000298BDF91CF911F91FF90EF900895612FDE
:10239000CE018EDC61E070E00E94101BE816F906A9
:1023A00008F47C011F5FDBCFF8942091A5023091E7
:1023B000A60281E02115310509F080E0232B09F008
:1023C000789408952F923F924F925F926F927F92EE
:1023D0008F929F92AF92BF92CF92DF92EF92FF9235
:1023E0000F931F93CF93DF933C01660E771EF3018B
:1023F000828193814C01B12CA12CC091A702D09174
:10240000A802209769F021E030E06091A902709164
:10241000AA028617970710F030E020E0232BD1F4B2
:1024200082E090E0FA01918380838EEF9FEFDF914D
:10243000CF911F910F91FF90EF90DF90CF90BF90C1
:10244000AF909F908F907F906F905F904F903F9054
:102450002F9008958092170190921801A09219016F
:10246000B0921A0163E1689F9001699F300D1124B9
:10247000C20FD31FF3018181833040F082E090E0EE
:10248000FA019183808386EF9FEFD1CF2A012B81C0
:102490003C81232BF1F4288139819F8191FF2EC04B
:1024A000232B09F46FC02091AC029A81422F490F6F
:1024B0005527551FBA0141E050E06138710514F00D
:1024C00050E040E0452B09F45DC02A87920F9093BD
:1024D000AC028150823008F481C066DF882309F4A1
:1024E000D8C0F3018181813009F48DC008F47BC02C
:1024F000823009F4C6C090E080E0ADC0232B09F41F
:1025000041C02091AB029A81E22FE90FFF27FF1F04
:1025100041E050E0ED3FF10514F050E040E0452B84
:1025200089F12A87920F9093AB02D3CFA081B1811A
:10253000A20FB31F11966C91060F111D0196295F12
:102540003F4F8417950794F38D859E85089F100152
:10255000099F300C189F300C1124C114D104D1F400
:102560008F8184FF17C00E945E1BF5E02F0E311C87
:1025700021E08215930508F420E0A701435F5F4F37
:1025800021110EC082E090E0F2019183808387EFF9
:102590009FEF4DCF0E945E1B2FEF221A320AE8CF29
:1025A00088819981E80EF91EF70114830383FFEFF8
:1025B000CF1ADF0A7A018A818C151D0409F00CF408
:1025C0008CCFE881F981EE0DFF1D428150E030E0B3
:1025D00020E010E000E090E080E0B3CFF12CE12CAF
:1025E000D12CC12CE8CF81E090E09C838B83F2DA80
:1025F000882309F480CF81E090E00E94650A80E49E
:102600000E94730A78CF89899A89019661F083E0E4
:1026100090E09C838B8382E090E00E94650A80E4D6
:102620000E946D0A68CF8D819E8120910D013091AD
:102630000E0182179307D1F460911101709112017C
:10264000AE014F5E5F4F80910F01909110010E948B
:10265000E41D0097E1F2789422E030E0F20131834A
:102660002083892B99F08DEF9FEFE1CE89288A286E
:102670008B2869F6892B59F6CE0168DE188A1F86E9
:10268000E8CF82E090E09C838B8335CF90E080E0C0
:10269000CECE82E090E0F2019183808385EF9FEFC0
:1026A000C6CE8F929F92AF92BF92CF92DF92EF925F
:1026B000FF920F931F93CF93DF93EA018C01060FD4
:1026C000171FF8018181833098F082E090E09983B0
:1026D000888386EF9FEFDF91CF911F910F91FF903D
:1026E000EF90DF90CF90BF90AF909F908F90089524
:1026F0008091A7029091A802892B61F081E090E07F
:102700002091A9023091AA02232B11F490E080E0DD
:10271000892B39F482E090E0998388838EEF9FEFD4
:10272000DACF42DE882309F4DFC0F80181818130ED
:1027300009F495C0E8F0823099F42091A902309113
:10274000AA02E091A702F091A80290E080E041E0A7
:1027500050E02817390709F0BDC03CDA811117C0D5
:10276000789481E090E09983888390E080E0B3CF13
:102770002091A9023091AA02E091A702F091A8024B
:1027800090E080E041E050E02817390741F481E013
:1027900090E00E94650A80E40E94730AE1CF6381A1
:1027A0007481672B11F05483438301967396ECCFA9
:1027B000E091A702F091A802E00FF11F238134817C
:1027C00022303105D9F4218932892F3F3F4FB1F4AE
:1027D0002581368140910D0150910E012417350756
:1027E00061F5AF014F5E5F4F609111017091120171
:1027F00080910F01909110010E94E41DEFEFCE1A1D
:10280000DE0AEE0AFE0A0D5E1F4F4091A9025091AA
:10281000AA0270E060E0C416D506E606F7063CF5AD
:10282000009731F27894892B09F49BCF82E090E0F5
:10283000998388838DEF9FEF4ECFC114D104E104BB
:10284000F104E1F6232BD1F6CF0180DDE091A70260
:10285000F091A802E00FF11F108A1786CFCF10E089
:1028600000E090E080E0C12CD12C7601CECF009723
:10287000C9F610E000E0812C912C540183E0E82E91
:10288000F12C1AC0E091A702F091A802E00FF11F0D
:1028900083819481029749F4F482E38282E090E09C
:1028A0000E94650A80E40E946D0AFFEF8F1A9F0A5A
:1028B000AF0ABF0A0D5E1F4F8091A9029091AA0234
:1028C000B0E0A0E088169906AA06BB06DCF290E00C
:1028D00080E0A8CF638174816230710511F4548364
:1028E00043830196739635CF82E090E09983888385
:1028F00085EF9FEFF0CE0097B9F48FEFFB01808357
:10290000209117013091180143E1429FC001439F7C
:10291000900D1124E091A702F091A802E80FF91F91
:102920008285FB01818308950C941E0A88E090E063
:10293000FA019183808390E080E008951092A602CE
:102940001092A502E7EAF2E086E0DF011D928A9587
:10295000E9F789E290E19093A4028093A30208959D
:102960008091A3029091A40208952F923F924F92DA
:102970005F926F927F928F929F92AF92BF92CF920F
:10298000DF92EF92FF920F931F93CF93DF93CDB718
:10299000DEB72F970FB6F894DEBF0FBECDBFF89409
:1029A000E091A502F091A6023196F093A602E09381
:1029B000A50278944090A7025090A80241145104B7
:1029C00009F40CC2E091A902F091AA02EF2B09F4DC
:1029D00005C22D8749875A876B877C8798878F83A5
:1029E0001201B12CA12C10E000E08091A90290917D
:1029F000AA02A816B90618F40115110529F1F894D0
:102A00008091A5029091A60201979093A6028093CF
:102A1000A5027894C8012F960FB6F894DEBF0FBEBA
:102A2000CDBFDF91CF911F910F91FF90EF90DF907D
:102A3000CF90BF90AF909F908F907F906F905F905E
:102A40004F903F902F9008957101E418F508D1013F
:102A500017968C91179781FD54C013968D919C9178
:102A60001497039709F04DC015968D919C91EF81B5
:102A7000F8858E179F0709F044C0B50190E080E00B
:102A80007ED48A832091A7023091A8023D832C83B3
:102A90003D85332309F44CC04C815D81452B09F4FD
:102AA0009AC18091A9029091AA02A816B90608F0CD
:102AB00092C1C501D9D88823E9F06C817D816E0D62
:102AC0007F1D7D836C83DB011F968D919C91892BEB
:102AD00089F0D12CC12CF12CE12CAC81BD81129656
:102AE0008C9112978E151F0409F094F450961C9245
:102AF0001E921F972A81222321F0B50190E080E0E9
:102B000040D43FEFA31AB30A43E1240E311C6DCF2A
:102B1000AC81BD81ED91FC91EC0DFD1D858196810F
:102B200008D7BFEFEB1AFB0AEDE0CE0ED11CD5CFD4
:102B3000EC81FD81309709F44EC18091A9029091FA
:102B4000AA02A816B90608F046C1EE0DFF1DFF87C0
:102B5000EE87C50189D88B83882339F1AE85BF857F
:102B60001F968D919C915097019621E01D964D9155
:102B70005C918417950709F020E02E831982712C4F
:102B800010E000E0AE85BF8512968C91781608F4AF
:102B90005DC0EE85FF858785908901966585768580
:102BA0000E945528908B8787A5CFB1E0BE83E6CFE2
:102BB000992493946BC084D6F6019683858382C052
:102BC000D601ED90FC90B7E06B9EE00CF11C112457
:102BD000F7016381748180818F3F61F121E030E0F2
:102BE00002C0220F331F8A95E2F7C901092E000C9B
:102BF000AA0BBB0BFB01408151816281738184234D
:102C00009523A623B72321E0892B8A2B8B2B09F44C
:102C100020E0D4012C93D70111968C91F6012385E5
:102C20003485820F932F911D880E991E148613866A
:102C300063949BC0418150E0C4010E94AA28EBCF5D
:102C4000998206EF1FEFC5C01982C3C0F981F11147
:102C5000A0CFEDE07E9E70011124AE85BF85CD90A2
:102C6000DC90CE0CDF1C13D49D838C83BB81BB23F3
:102C700009F49ECF81E0EE85FF8527853089232BDF
:102C800009F080E0982E882309F458C0672D8E85BE
:102C90009F850ED8D60118969C938E93179761E066
:102CA00070E0BED4EE85FF85218932892F3F32073F
:102CB00009F481CFBC01C901C8D7D60116969C93EF
:102CC0008E931597D60115968D919C911697009726
:102CD00009F4B6CFEC81FD818E0F9F1F1A969C934D
:102CE0008E931997AE85BF85ED91FC911197EE0EED
:102CF000FF1EF70121853285148613861A968C9162
:102D0000870DD9018D93711016C0EE85FF858781DF
:102D100084FF11C049855A856B857C85F901418303
:102D2000528363837483F701838594850496A80F87
:102D3000B91F14861386F701B287A187D6011596AD
:102D40008D919C911697892B09F443C0EE85FF85E0
:102D50002581368180910D0190910E012817390748
:102D600079F019968D909C90612CD60112968C91D9
:102D70001297681608F424CF1A969C928E9219978F
:102D8000BE81BB2309F460CF61E070E0F60187816A
:102D9000908546D4D6011796ED90FC90189715961D
:102DA0004D915C91E1E0F0E0BA81BB2311F0F0E0DD
:102DB000E0E00C811D819C01B501882799278E1BBD
:102DC0009F0B68D38C01892B21F0F60185819681B8
:102DD000B0D57394D7CE0FEF1FEF8CCE10E000E08C
:102DE0000ECE2F923F924F925F926F927F928F9270
:102DF0009F92AF92BF92CF92DF92EF92FF920F938A
:102E00001F93CF93DF938091A7029091A80210E0C7
:102E100000E0892BA9F0C8DA0AEF1FEF882381F0C0
:102E20002090A9023090AA02C091A702D091A802D6
:102E3000D12CC12C10E000E02C143D04A9F47894AE
:102E4000C801DF91CF911F910F91FF90EF90DF901C
:102E5000CF90BF90AF909F908F907F906F905F903A
:102E60004F903F902F900895C6010E94340E882302
:102E700009F18B819C810397E9F48F859889892BCF
:102E8000C9F0B60190E080E07AD221E030E08823FA
:102E900011F030E020E044245524421A530AB12CAA
:102EA000A12C912C812C8A818815190409F038F401
:102EB000188A1F864FEFC41AD40A6396BDCFE881E3
:102EC000F981EA0DFB1D85819681892BA1F161E0D5
:102ED00070E087819085A4D33C01D9D28C01E88130
:102EE000F981EA0DFB1D8185928525813681200FB0
:102EF000311FAC01421B530B9A0147815085421B85
:102F0000530B70E060E00E94B328E881F981EA0D7C
:102F1000FB1DE780F084458156819301B601C20113
:102F2000B9D28C01892B39F0E881F981EA0DFB1DBA
:102F300085819681FED45FEF851A950A8DE0A80EF3
:102F4000B11CB1CF31CA789408952F923F924F921D
:102F50005F926F927F929F92AF92BF92CF92DF92D9
:102F6000EF92FF920F931F93CF93DF9300D000D087
:102F700000D0CDB7DEB70091A7021091A802992426
:102F800093940115110509F43EC0A090A902B090D8
:102F9000AA020ADA982E8823B1F11092A8021092A0
:102FA000A7021092AA021092A9021092AB021092EC
:102FB000AC028FEF9FEFDC01809317019093180113
:102FC000A0931901B0931A0178947AD31E830D83CC
:102FD000C12CD12C7601C501B0E0A0E089839A8391
:102FE000AB83BC8322242A94322C89819A81AB81C1
:102FF000BC81C816D906EA06FB06F4F0C80199D4CC
:1030000080E40E94730A892D26960FB6F894DEBFDD
:103010000FBECDBFDF91CF911F910F91FF90EF9029
:10302000DF90CF90BF90AF909F907F906F905F9018
:103030004F903F902F900895AD81BE8115968D9150
:103040009C91169720910D0130910E0182179307E4
:10305000D1F451968D919C91E6D5ED81FE818081D0
:103060009181B12CA12C412C512C3201892B89F555
:10307000BFEFCB1ADB0AEB0AFB0AED81FE817396E8
:10308000FE83ED83B2CFC114D104E104F10429F72A
:10309000892B19F7ED81FE81818992898F3F9807ED
:1030A00009F021D5AD81BE8152963C922E92519766
:1030B000D4CF8A0D9B1DDC018D919C91009709F066
:1030C00038D4BFEF4B1A5B0A6B0A7B0AEDE0AE0EF9
:1030D000B11CAD81BE818D919C91119712964C913E
:1030E00050E070E060E044165506660677060CF383
:1030F00020D4BECFCF93DF93EA0127DF811109C02F
:1031000082E090E09983888385EF9FEFDF91CF91F4
:10311000089581E090E00E94650A81E090E0998343
:10312000888390E080E0F2CF10DF1092A40210922A
:10313000A302089542E050E066EA71E00C94830A2D
:10314000FF920F931F93CF93DF938A01EC01C60F79
:10315000D71FF980B4D20897F816190671F068F0F5
:1031600082E090E0F801918380838EEF9FEFDF9102
:10317000CF911F910F91FF9008956C817D818E8179
:103180009F814B810E941A0D811108C082E090E05E
:10319000F8019183808384EF9FEFE9CFF9800E944B
:1031A000150D4F2D50E0BE01685F7F4F0E94AA2889
:1031B00089810E94840D81E090E0F80191838083F1
:1031C00090E080E0D4CFDF92EF92FF920F931F93B5
:1031D000CF93DF938A01EC01C60FD71F0E94150D14
:1031E0007C01D9806CD2DD2059F0029721E030E0DB
:1031F000D816190619F010F030E020E0232B79F4EE
:1032000082E090E0F801918380838EEF9FEFDF9161
:10321000CF911F910F91FF90EF90DF900895EF28CD
:1032200041F482E090E0F8019183808384EF9FEF86
:10323000EECFF9800E94150D4F2D50E0BE016E5F5C
:103240007F4F0E94AA2889810E94840D81E090E02E
:10325000F8019183808390E080E0D9CF8AE998E1FA
:103260009093AE028093AD0208958091AD0290914B
:10327000AE0208950895FC01118210829383828327
:103280000895DB011D921C92DC011296ED91FC91D8
:1032900013977183608313967C936E9312970895AE
:1032A000FC0180819181DB018D939C93A081B18190
:1032B000109741F08D919C9191838083892B11F41B
:1032C000F383E2830895FC0180819181DB018D937A
:1032D0009C93892B11F473836283718360830895B7
:1032E000FC0111821082938382830895CF93DF9330
:1032F00000D0CDB7DEB71A821982F894BE016F5F95
:103300007F4F84EB92E0CCDF89819A81009709F0AE
:1033100010D389819A81892B89F7BE016F5F7F4F16
:1033200088EB92E0BDDF89819A81009709F001D393
:1033300089819A81892B89F778940F900F90DF917A
:10334000CF910895CF93DF9300D0CDB7DEB71A8227
:103350001982F894BE016F5F7F4F80EB92E0A0DF8F
:1033600089819A81009709F0E4D289819A81892B19
:1033700089F778940F900F90DF91CF91089581E0B5
:10338000089590E080E00895EF92FF920F931F93CD
:10339000CF93DF9300D0CDB7DEB71A821982809128
:1033A000AF0207EF1FEF8823A1F1F894BE016F5F12
:1033B0007F4F88EB92E074DF789489819A81EE24C4
:1033C000E394F12C892B51F4F894BE016F5F7F4F89
:1033D00084EB92E065DF7894F12CE12C89819A816D
:1033E0000EEF1FEF0097A9F0FC014281538164E0CA
:1033F00070E06AD68C01892B61F0F89469817A813A
:10340000C701880F991F880F991F8C549D4F5BDF50
:103410007894C8010F900F90DF91CF911F910F9179
:10342000FF90EF9008950F931F93CF93DF9300D0F9
:1034300000D0CDB7DEB71C821B821A821982809120
:10344000AF0207EF1FEF8823C1F0AE014D5F5F4F62
:1034500064E070E0CE010196AAD68C01892B69F454
:10346000E981FA818B819C8193838283F8946981BD
:103470007A8180EB92E005DF7894C8010F900F907D
:103480000F900F90DF91CF911F910F910895AED7BC
:10349000049608958F929F92AF92BF92CF92DF923F
:1034A000EF92FF920F931F93CF93DF9300D0CDB78E
:1034B000DEB71A821982BC016F5F7F4F63307105DE
:1034C00098F0AA24AA94BA2CC5010F900F90DF910E
:1034D000CF911F910F91FF90EF90DF90CF90BF9011
:1034E000AF909F908F9008954115510551F3480179
:1034F00059018A016C01CBDF8815990511F7E11498
:10350000F104F9F28E0D9F1DA816B906D0F2809134
:10351000AF028823F1F0F894B50164507109970166
:10352000AE014F5F5F4FC8010496D5D65C01892B71
:1035300071F489819A81F80193838283C601880F8F
:10354000991F880F991FB8018C549D4F9ADE78946B
:10355000BBCF87EFA82EBB24BA94B6CFAF92BF9251
:10356000CF92DF92EF92FF920F931F93CF93DF934F
:1035700000D0CDB7DEB71A821982892B09F047C077
:103580006115710509F443C04115510509F43FC0A7
:103590002115310509F43BC001151105C1F18091D8
:1035A000AF028823B9F179016A015B01F894BE0189
:1035B0006F5F7F4F80EB92E073DE789489819A8110
:1035C000009759F1DC0112966D917C91A801049647
:1035D0009BD68C01E981FA81D501ED93FC93828120
:1035E00093810496F6019183808351DFD7018D93F7
:1035F0009C93C8010F900F90DF91CF911F910F9175
:10360000FF90EF90DF90CF90BF90AF9008950FEFB5
:103610001FEFEFCF07EF1FEFECCF0EEF1FEFE9CF5C
:10362000CF93DF93EC01672B71F4E9D68C179D07DC
:1036300060F0DCD62496C80FD91FDBD68C0F9D1FF7
:10364000DF91CF910895D8D6F1CF90E080E0F8CF08
:103650000F931F93CF93DF932091AF0221112BC0C3
:103660008B01EC0184EB92E006DE88EB92E003DE56
:1036700080EB92E000DE97D00097C1F4C0D670E0F6
:1036800060E0CEDF4BE151E062E070E07ED1009778
:1036900069F480911B0190911C01C3D6B801CE0141
:1036A000F9D4009719F421E02093AF02DF91CF9174
:1036B0001F910F91089584EF9FEFF8CF9DC69FC68D
:1036C000CF93DF939FD6EC01892B11F40FDE3ADE06
:1036D000CE01DF91CF910895CF93DF9393D6EC0184
:1036E000892B09F403DECE01DF91CF9108958091FB
:1036F0001B0190911C010895CF93DF938091AF023D
:10370000D0E0C0E08823D1F091D6EC01892BB1F450
:10371000EDDD18DE80911B0190911C01E4D1E5D212
:10372000EC01892B59F484EB92E0DADD88EB92E02E
:10373000D7DD80EB92E0D4DD1092AF02CE01DF91B5
:10374000CF910895EF92FF920F931F93CF93DF9342
:10375000EC017A018B010F5F1F4F0E9DA0010F9DA1
:10376000500D1E9D500D112470E060E00E94B328A2
:1037700090E080E0F0E0E0E02FEFE816F90639F4A1
:10378000DF91CF911F910F91FF90EF9008951A82D2
:1037900019822883309711F0D283C1830196FE01EC
:1037A000C00FD11FEACFCF92DF92EF92FF920F931B
:1037B0001F93CF93DF9308E913E00C7F43E050E0C1
:1037C0006DE171E083E291E012D48DE1E82E81E0B9
:1037D000F82E93E2C92E91E0D92ECFEFD3E0D70196
:1037E0004D915D917D01F601619171916F01198398
:1037F00008835D834C835B834A837F836E839B0155
:103800002F5F3F4F249FC001259F900D349F900D47
:103810001124998788870115110511F0C80192DFDD
:1038200088859985080F191F2A96F3E2EF16F1E0B3
:10383000FF06A9F6EEEBF2E087EDDF011D928A9517
:10384000E9F71092BD021092BC0210921E04109271
:103850001D04109222041092210410922004109250
:103860001F04109224041092230410922604109234
:103870002504109228041092270410922C04109210
:103880002B0410922A041092290410922E041092F4
:103890002D041092300410922F041092FC03109209
:1038A000FB031092FE031092FD0390E080E0DF9195
:1038B000CF911F910F91FF90EF90DF90CF900895DF
:1038C0000097F1F0F894A3E2B1E0EFEFF3E030E01D
:1038D00020E04D915D9148175907A8F0428153812E
:1038E0004115510581F08AE0829FF001839FF00D20
:1038F0001124E150FC4F80819181009759F4789414
:1039000090E080E008952F5F3F4F3A9623303105D5
:1039100001F7F5CFDC0111966D917C917183608385
:103920004150510953834283FC012193CF01789484
:103930000895009749F1DC018E91853041F4E091C2
:10394000FD03F091FE033097F9F0CD010994853025
:10395000D8F4282F30E0F8948FEF8C938AE0829F80
:10396000F001839FF00D1124E150FC4F8081918183
:1039700012969C938E931197B183A0838281938139
:1039800001969383828378940895CF92DF92EF9289
:10399000FF920F931F93CF93DF939C0181EC92E0F2
:1039A0008C7F4115510509F49BC02115310509F49F
:1039B00097C06115710509F493C07A01AB01B90193
:1039C0006D5F7F4F6C7F9B012F5F3F4F249F800176
:1039D000259F100D349F100D1124F89420911D0483
:1039E00030911E04232B59F4209125043091260494
:1039F0002115310569F12017310708F058C02091D1
:103A0000270430912804232B91F420912504309130
:103A10002604820F931F20912F043091300421152A
:103A2000310509F441C02017310708F056C07894D9
:103A3000CFEFDFEF86EF9FEFF701D183C083DF91F8
:103A4000CF911F910F91FF90EF90DF90CF9008954D
:103A5000C3E0D0E0C090BC02D090BD0224ED30E0C5
:103A60002C193D092017310710F32AE02C9FF00193
:103A70002D9FF00D1124E150FC4F918380835583DD
:103A8000448353834283778366831187008700973B
:103A900009F058DE0C0D1D1D1093BD020093BC02F1
:103AA000789490E080E0C8CFC4E0D0E0D3CFC3E00A
:103AB000D0E02AE02C9FF0012D9FF00D1124E15061
:103AC000FC4F918380835583448353834283778360
:103AD0006683009729F336DEE3CFC4E0D0E0E9CF78
:103AE0008FEF9FEFACCF9C010397029708F069C05E
:103AF000F89484E09AE0482F50E0241735070CF43E
:103B00004DC091E08AE0829FF001839FF00D112467
:103B1000E150FC4F118210821582148213821282AE
:103B2000178216829923B1F180911D0490911E0491
:103B3000892BA9F420912504309126042115310503
:103B400071F08091BC029091BD02821B930B909307
:103B5000BD028093BC02109226041092250480912D
:103B6000270490912804892BA9F420912F043091E7
:103B700030042115310571F08091BC029091BD0295
:103B8000821B930B9093BD028093BC021092300471
:103B900010922F04789490E080E00895949FF001B3
:103BA000959FF00D1124E150FC4F40815181452B30
:103BB00031F440855185452B11F481509CCF90E024
:103BC000A1CF8FEF9FEF08954115510549F100975F
:103BD00039F16115710521F1F8942091FB033091C1
:103BE000FC03232BB9F42091FD033091FE03232B1A
:103BF00089F49093FC038093FB037093FE0360931E
:103C0000FD03789425E030E090E080E0FA01318314
:103C10002083089578942FEF3FEF86EF9FEFF6CF44
:103C20008FEF9FEF0895059769F4F8941092FC03C5
:103C30001092FB031092FE031092FD03789490E023
:103C400080E008958FEF9FEF08956115710519F4D5
:103C5000F0E0E0E011C08530910581F4E091FB03D4
:103C6000F091FC033097A1F3CB01019609950097E1
:103C700079F3FC0185E08193CF0108959C012350E5
:103C800031092230310520F72AE0289FD001299FF1
:103C9000B00D1124A150BC4F2D913C911197232BB5
:103CA000B9F216962D913C9117972617370780F297
:103CB000F89412962D913C9113972115310529F016
:103CC000ED91FC911197309711F47894C1CF418117
:103CD000528111965C934E932150310913963C9377
:103CE0002E93129781937894C7CFE5E9F3E086E6A7
:103CF000DF011D928A95E9F7EEEBF2E087EDDF0137
:103D00001D928A95E9F71092BD021092BC02EFEF66
:103D1000F3E082E3DF011D928A95E9F7EBEFF3E030
:103D200084E0DF011D928A95E9F790E080E0089534
:103D3000CF93DF93C0912901D0912A01CF3FDC07B7
:103D400059F406D490932A018093290197FF09C062
:103D5000D0932A01C093290184EF9FEFDF91CF9187
:103D6000089590E080E0FACF8230910528F48093A6
:103D7000310490E080E008958FEF9FEF08954F9217
:103D80005F926F927F92AF92BF92CF92DF92EF924B
:103D9000FF920F931F93CF93DF9300D0CDB7DEB781
:103DA0001A821982009709F478C06115710509F427
:103DB00074C02091290130912A0107EF1FEF2F3F96
:103DC0003F4F09F444C06B015C01412C512C32017E
:103DD000F12CE12C10E000E09E012F5F3F4FA60187
:103DE0004E195F09B5016E0D7F1D809129019091DB
:103DF0002A010DD4892B09F04AC089819A81009744
:103E000041F4E114F10429F420913104222309F44E
:103E100041C0E80EF91EEC14FD04C8F480E8481611
:103E200084E858068EE16806710418F560E070E0D9
:103E3000CB01B2D62AE0420E511C611C711C0A3F14
:103E40004FEF140721F0043F8FEF1807A1F4C801CA
:103E50000F900F90DF91CF911F910F91FF90EF90F6
:103E6000DF90CF90BF90AF907F906F905F904F901A
:103E7000089501EF1FEF81E090E0013F2FEF12075F
:103E800011F090E080E0892B09F4A6CFE0CF04EF99
:103E90001FEFDDCF0AEF1FEFDACF0FEF1FEFD7CF06
:103EA0004F925F926F927F92AF92BF92CF92DF92CA
:103EB000EF92FF920F931F93CF93DF9300D0CDB774
:103EC000DEB71A821982009709F478C0611571056E
:103ED00009F474C02091290130912A0107EF1FEFE6
:103EE0002F3F3F4F09F444C06B015C01412C512C22
:103EF0003201F12CE12C10E000E09E012F5F3F4FDA
:103F0000A6014E195F09B5016E0D7F1D8091290133
:103F100090912A0132D3892B09F04AC089819A8174
:103F2000009741F4E114F10429F420913104222393
:103F300009F441C0E80EF91EEC14FD04C8F480E455
:103F4000481682E458068FE06806710418F560E0B0
:103F500070E0CB0121D62AE0420E511C611C711C7D
:103F60000E3F4FEF140721F0043F8FEF1807A1F425
:103F7000C8010F900F90DF91CF911F910F91FF908B
:103F8000EF90DF90CF90BF90AF907F906F905F9059
:103F90004F90089502EF1FEF81E090E0023F2FEF76
:103FA000120711F090E080E0892B09F4A6CFE0CF52
:103FB00004EF1FEFDDCF0EEF1FEFDACF0FEF1FEF94
:103FC000D7CF8091290190912A018F3F980749F01E
:103FD000B7D2892B49F48FEF9FEF90932A018093FA
:103FE000290190E080E0089584EF9FEF0895CF923B
:103FF000DF92EF92FF920F931F93CF93DF9321E015
:104000004115510509F020E04150510921112CC002
:10401000DC01FB01D12CC12C21E022C03FEFC31AEF
:10402000D30A7D010D911D91E701EA80FB80E01626
:10403000F106A8F420813181E280F380F182E082F0
:1040400033832283ED90FC9011979D01225031091A
:10405000E901F982E88211961C930E9320E03296D2
:10406000C416D506D8F2D2CFDF91CF911F910F9110
:10407000FF90EF90DF90CF900895FC01680F791FBB
:1040800090E080E0E617F70709F408952191820F88
:10409000911DF8CF20913204211113C049DE009701
:1040A00091F4109238041092370410923604109252
:1040B0003504109234041092330421E0209332042A
:1040C000089584EF9FEF0895AF92BF92CF92DF9251
:1040D000EF92FF920F931F93CF93DF93009709F412
:1040E00060C04630510508F45CC020913204C7EF2F
:1040F000DFEF222309F449C08C01060F171FF801D6
:10410000C080D180C114D10409F44EC096012A5F49
:104110003F4F4217530708F447C07C018091370492
:104120009091380493838283B6016C5F7F4F58016E
:10413000A60EB71EC801A1DFF5019183808364E05C
:1041400070E0C8011CDEEC01892BF9F481E090E0FD
:104150000BDEB601C801049612DEEC01892B91F446
:1041600062E070E0C5010BDEEC01892B59F4C70158
:10417000E0DB8091370490913804019690933804E5
:104180008093370490E080E0EFDDCE01DF91CF91A6
:104190001F910F91FF90EF90DF90CF90BF90AF9065
:1041A0000895CFEFDFEFF1CFC9EFDFEFEECF6F92E2
:1041B0007F928F929F92AF92BF92CF92DF92EF92B7
:1041C000FF920F931F93CF93DF9300D000D0CDB712
:1041D000DEB7009709F479C04115510509F475C09F
:1041E0002091320407EF1FEF222309F44CC03A015B
:1041F0007B015C0164E070E0CE01019651DE8C0130
:10420000892B09F040C009811A810115110509F4B3
:1042100059C0480186E0880E911CB701680D791DD0
:1042200080912B0190912C0110DD6C01009709F415
:104230004FC0A70170E060E096D789819A81AB8179
:10424000BC81EC0CFD1CF70181939193A193B19378
:104250007F0181E090E088DDB801C70121DE892B74
:1042600031F562E070E0C701800F911F19DE8C010B
:10427000892BE9F490E080E077DDF501D182C082FE
:10428000F30191828082C8010F900F900F900F90E0
:10429000DF91CF911F910F91FF90EF90DF90CF9022
:1042A000BF90AF909F908F907F906F90089590E017
:1042B00080E05ADDF50111821082F3011182108233
:1042C000C60137DB09EF1FEFDECF0FEF1FEFDBCFAC
:1042D00006EF1FEFD8CF0097A1F04115510589F0E7
:1042E0002115310571F0F90136966E177F0748F0F8
:1042F000DC012D933C93DA01ED93FC9390E080E098
:1043000008958FEF9FEF0895AF92BF92CF92DF9203
:10431000EF92FF920F931F93CF93DF93009709F4CF
:104320005FC04115510509F45BC06530710508F4A3
:1043300057C020913204C7EFDFEF222391F1DC0157
:10434000CD90DC9011971296ED91FC9196012A5F29
:104350003F4FC9EFDFEF2617370719F5C091330438
:10436000D0913404209749F521E030E030933404B3
:10437000209333047A018C01F0933604E0933504E2
:104380005601B4E0AB0EB11CB50177DE0A0D1B1D62
:10439000F801208131818217930729F5D701CD9249
:1043A000DC92CE01DF91CF911F910F91FF90EF90A2
:1043B000DF90CF90BF90AF90089520913504309159
:1043C00036042F5F3F4FCCEFDFEFE217F30790F299
:1043D000CBEFDFEF2E173F0768F2D0E0C0E0CACF87
:1043E000CFEFDFEFDECFC3EFDFEFDBCF84E090E096
:1043F000089582E090E008958CEF9FEF089580E2A9
:1044000090E0089510923804109237041092360408
:1044100010923504109234041092330490E080E03E
:10442000089590932C0180932B010895809132047C
:10443000882391F0C6DD009789F410923804109219
:1044400037041092360410923504109234041092FE
:10445000330410923204089590E080E008950097AC
:1044600049F06115710531F0FC0111821082FB01E8
:10447000118210820895F3CF26E030E040E855E243
:1044800060E070E090E080E000C0892B19F486E4E1
:1044900094E0F9C408951F920F920FB60F92112461
:1044A0002F933F934F935F936F937F938F939F933C
:1044B000AF93BF93EF93FF938FE89DEF90938500A9
:1044C00080938400B7D0FF91EF91BF91AF919F91FE
:1044D0008F917F916F915F914F913F912F910F90AD
:1044E0000FBE0F901F9018958FE89DEF9093850059
:1044F00080938400AFE6B0E08C918E7F8C93E0E8EF
:10450000F0E080818C7F8083E1E8F0E08081877E2D
:10451000808380818460808380818C7F80838C9184
:1045200081608C930895EFE6F0E0808190819E7F1A
:1045300090838170089581E0089510923904089560
:1045400068EE73E080E090E027D390E080E008958B
:1045500026E030E040E052EC61E070E090E080E086
:1045600094DF86E494E0C5D3892B21F086E494E0BF
:10457000DAD3F7CF90E080E00895CF92DF92EF9208
:10458000FF920F931F93CF93DF936B017A01E901A1
:104590001982188286E494E0ACD3892B69F18601F4
:1045A000CC24C39482E0D82E80913904811110C0AC
:1045B00086E494E0B8D30297B9F7C0923904F801C1
:1045C000D1928F0188819981019699838883ECCF5C
:1045D000888199818E159F0578F486E494E0A3D3B1
:1045E0008F3F9807A9F3F80181938F018881998102
:1045F000019699838883ECCF90E080E0DF91CF91A2
:104600001F910F91FF90EF90DF90CF9008950F933F
:104610001F93CF93DF93EA01890186E494E017D5D5
:10462000F801D183C08390E080E0DF91CF911F91AA
:104630000F910895CF92DF92EF92FF9280913A040A
:1046400091E0980F90933A04882369F021E030E0DC
:1046500030933C0420933B0480933A04FF90EF9006
:10466000DF90CF9008957894E0913201F09133017A
:10467000C28CD38CE48CF58C0E945603B701A60142
:1046800090E080E00E94C902F89480913A04815041
:10469000E3CF0F931F93CF93DF931092F404109204
:1046A000F304B0D2E9DEC0913201D0913301198216
:1046B00018826FEF7FEFCB010E944B0370E060E048
:1046C00090E080E00E94CE01009709F03AC00E947D
:1046D000B103F8947894BE016E5D7F4F8A819B810F
:1046E0000E94D101892B59F46FEF7FEFCB010E941B
:1046F00060020E944503882311F081E08EA3F894A4
:10470000F3DE0E944803882311F080E008C00E9475
:1047100045038111FACF81E09EA19111F6CF8093DC
:10472000F30478940E94600A8C0178948091F304D9
:1047300081110CC00E942A040E942B03F89490E07F
:1047400080E0DF91CF911F910F9108950E9429037E
:104750000E9448038823D9F081E08093F40490916B
:10476000F40481E0911180E08093F3048091F404DB
:104770008111D9DE0130110529F40E94600A892BCC
:1047800009F4DBDE0E94600A8C01D5DECFCF0E94E7
:1047900045038111E1CF81E09EA19111DECF80E040
:1047A000DCCF40D008F481E00895E89409C097FB7D
:1047B0003EF490958095709561957F4F8F4F9F4FF8
:1047C0009923A9F0F92F96E9BB279395F69587953C
:1047D00077956795B795F111F8CFFAF4BB0F11F4FF
:1047E00060FF1BC06F5F7F4F8F4F9F4F16C08823A6
:1047F00011F096E911C0772321F09EE8872F762FDC
:1048000005C0662371F096E8862F70E060E02AF01C
:104810009A95660F771F881FDAF7880F9695879508
:1048200097F90895990F0008550FAA0BE0E8FEEFDD
:1048300016161706E807F907C0F012161306E40764
:10484000F50798F0621B730B840B950B39F40A265D
:1048500061F0232B242B252B21F408950A2609F43B
:10486000A140A6958FEF811D811D0895DBDF08F41F
:104870008FEF08950BD078C069D028F06ED018F073
:10488000952309F05AC05FC01124A2C07ED0A0F3C6
:10489000959FD1F3950F50E0551F629FF001729FD5
:1048A000BB27F00DB11D639FAA27F00DB11DAA1FF4
:1048B000649F6627B00DA11D661F829F2227B00D41
:1048C000A11D621F739FB00DA11D621F839FA00DCC
:1048D000611D221F749F3327A00D611D231F849F1C
:1048E000600D211D822F762F6A2F11249F57504073
:1048F0008AF0E1F088234AF0EE0FFF1FBB1F661F0E
:10490000771F881F91505040A9F79E3F510570F0C6
:1049100014C05EC05F3FECF3983EDCF3869577955C
:104920006795B795F795E7959F5FC1F7FE2B880FC1
:10493000911D9695879597F9089597F99F6780E857
:1049400070E060E008959FEF80EC089500240A94E1
:104950001616170618060906089500240A9412165A
:104960001306140605060895092E0394000C11F48D
:10497000882352F0BB0F40F4BF2B11F460FF04C03A
:104980006F5F7F4F8F4F9F4F089557FD9058440F93
:10499000551F59F05F3F71F04795880F97FB991F9E
:1049A00061F09F3F79F0879508951216130614065B
:1049B000551FF2CF4695F1DF08C0161617061806E8
:1049C000991FF1CF86957105610508940895E894C3
:1049D000BB2766277727CB0197F908950895823082
:1049E000E8F4E82FF0E0EE0FFF1FE35DFE4F718368
:1049F0006083813041F0809169008C7F482B409327
:104A00006900E89A089580916900837F440F551FDB
:104A1000440F551F482B40936900E99A08951F924F
:104A20000F920FB60F9211242F933F934F935F93E2
:104A30006F937F938F939F93AF93BF93EF93FF9366
:104A4000E0912D01F0912E010995FF91EF91BF9119
:104A5000AF919F918F917F916F915F914F913F9116
:104A60002F910F900FBE0F901F9018951F920F92CD
:104A70000FB60F9211242F933F934F935F936F9331
:104A80007F938F939F93AF93BF93EF93FF93E091A7
:104A90002F01F09130010995FF91EF91BF91AF91F6
:104AA0009F918F917F916F915F914F913F912F9146
:104AB0000F900FBE0F901F9018951F920F920FB678
:104AC0000F9211242F933F938F939F93AF93BF9394
:104AD00080913E0490913F04A0914004B091410424
:104AE00030913D0423E0230F2D3758F50196A11D89
:104AF000B11D20933D0480933E0490933F04A09306
:104B00004004B09341048091420490914304A091E9
:104B10004404B09145040196A11DB11D8093420447
:104B200090934304A0934404B0934504BF91AF9184
:104B30009F918F913F912F910F900FBE0F901F90DB
:104B4000189526E8230F0296A11DB11DD2CF3FB7BD
:104B5000F8948091420490914304A0914404B09150
:104B6000450426B5A89B05C02F3F19F00196A11D4D
:104B7000B11D3FBFBA2FA92F982F8827BC01CD01A7
:104B8000620F711D811D911D42E0660F771F881F06
:104B9000991F4A95D1F708958F929F92AF92BF9235
:104BA000CF92DF92EF92FF926B017C01D0DF4B013D
:104BB0005C01C114D104E104F104D9F075D2C7DF5E
:104BC000681979098A099B09683E73408105910536
:104BD00080F321E0C21AD108E108F10888EE880EBE
:104BE00083E0981EA11CB11CC114D104E104F1049E
:104BF00031F7FF90EF90DF90CF90BF90AF909F90F4
:104C00008F900895789484B5826084BD84B5816066
:104C100084BD85B5826085BD85B5816085BDEEE6C4
:104C2000F0E0808181608083E1E8F0E010828081A3
:104C300082608083808181608083E0E8F0E0808111
:104C400081608083E1EBF0E0808184608083E0EB31
:104C5000F0E0808181608083EAE7F0E08081846019
:104C60008083808182608083808181608083808175
:104C7000806880831092C1000895CF93DF9390E005
:104C8000FC01E859FF4F249184589F4FFC01849107
:104C90008823C9F090E0880F991FFC01EC55FF4F65
:104CA000A591B491FC01E656FF4FC591D4916111D5
:104CB0000DC09FB7F8948C91209582238C938881A6
:104CC000282328839FBFDF91CF910895623051F44C
:104CD0009FB7F8943C91822F809583238C93E88131
:104CE0002E2BEFCF8FB7F894EC912E2B2C938FBFF8
:104CF000EACFFC01918D228D892F90E0805C9F4F3F
:104D0000821B91098F7399270895FC01918D828DE3
:104D1000981731F0828DE80FF11D858D90E0089590
:104D20008FEF9FEF0895FC01918D828D981761F0B0
:104D3000A28DAE0FBF2FB11D5D968C91928D9F5F9E
:104D40009F73928F90E008958FEF9FEF0895FC017D
:104D5000538D448D252F30E0842F90E0821B930BE0
:104D6000541710F0CF96089501970895FC01A48D73
:104D7000A80FB92FB11DA35ABF4F2C91848D90E07D
:104D800001968F739927848FA689B7892C93A08960
:104D9000B1898C91837080648C93938D848D9813EA
:104DA00006C00288F389E02D80818F7D808308957D
:104DB000CF93DF93EC01888D8823B1F0AA89BB895A
:104DC000E889F9898C9185FD03C0808186FD0CC03E
:104DD0000FB607FCF7CF8C9185FFF2CF808185FF5E
:104DE000EDCFCE01C3DFEACFDF91CF910895EF92EF
:104DF000FF920F931F93CF93DF93EC0181E0888F95
:104E00009B8D8C8D98131AC0E889F989808185FF64
:104E100015C09FB7F894EE89FF896083E889F98906
:104E200080818370806480839FBF81E090E0DF9108
:104E3000CF911F910F91FF90EF900895F62E0B8D5B
:104E400010E00F5F1F4F0F731127E02E8C8D8E1116
:104E50000BC00FB607FCFACFE889F989808185FF7E
:104E6000F5CFCE0183DFF2CFEB8DEC0FFD2FF11DDF
:104E7000E35AFF4FF0829FB7F8940B8FEA89FB89C2
:104E800080818062D0CFCF92DF92EF92FF921F930A
:104E9000CF93DF93EC016A017B01122FE889F98936
:104EA00082E08083C11481EED806E104F10499F018
:104EB00060E079E08DE390E0A70196010AD12150EE
:104EC000310941095109569547953795279521157F
:104ED00080E1380790F0E889F989108260E874E889
:104EE0008EE190E0A7019601F4D0215031094109EB
:104EF00051095695479537952795EC85FD85308363
:104F0000EE85FF852083188EEC89FD891083EA8960
:104F1000FB89808180618083EA89FB898081886048
:104F20008083EA89FB89808180688083EA89FB89A4
:104F300080818F7D8083DF91CF911F91FF90EF90D3
:104F4000DF90CF9008951F920F920FB60F92112409
:104F50002F938F939F93EF93FF93E0915604F091DB
:104F600057048081E0915C04F0915D0482FD1BC0D8
:104F7000908180915F048F5F8F732091600482170E
:104F800041F0E0915F04F0E0EA5BFB4F958F809386
:104F90005F04FF91EF919F918F912F910F900FBE22
:104FA0000F901F9018958081F4CF1F920F920FB62B
:104FB0000F9211242F933F934F935F936F937F939F
:104FC0008F939F93AF93BF93EF93FF9386E494E007
:104FD000CDDEFF91EF91BF91AF919F918F917F9126
:104FE0006F915F914F913F912F910F900FBE0F9056
:104FF0001F901895E6E4F4E01382128288EE93E0A5
:10500000A0E0B0E084839583A683B78386EB91E02C
:105010009183808385EC90E09587848784EC90E091
:105020009787868780EC90E0918B808B81EC90E075
:10503000938B828B82EC90E0958B848B86EC90E056
:10504000978B868B118E128E138E148E0895AF92CD
:10505000BF92CF92DF92EF92FF920F931F93CF9365
:10506000DF936C017B018B01040F151FEB015E01C7
:10507000AE18BF08C017D10759F06991D601ED915C
:10508000FC910190F081E02DC6010995892B79F7FB
:10509000C501DF91CF911F910F91FF90EF90DF90AD
:1050A000CF90BF90AF9008950895AA1BBB1B51E10C
:1050B00007C0AA1FBB1FA617B70710F0A61BB70B88
:1050C000881F991F5A95A9F780959095BC01CD012D
:1050D0000895A1E21A2EAA1BBB1BFD010DC0AA1F39
:1050E000BB1FEE1FFF1FA217B307E407F50720F051
:1050F000A21BB30BE40BF50B661F771F881F991FCC
:105100001A9469F760957095809590959B01AC0114
:10511000BD01CF010895EE0FFF1F0590F491E02D22
:10512000099409D0A59F900DB49F900DA49F800D68
:10513000911D11240895A29FB001B39FC001A39FA8
:10514000700D811D1124911DB29F700D811D1124C0
:10515000911D0895FB01DC0102C001900D924150A8
:105160005040D8F70895DC0101C06D934150504084
:08517000E0F70895F894FFCF69
:10517800000080BFFEFFFFFF01E8030000FFFF0003
:10518800000000FFFFFFFFFFFFFFFFFFFF0100011F
:10519800000100200038000800FFFFFFFFEE24EEAA
:1051A80024010502FF00B70CE30CFE009D0C1E0A4B
:1051B800FD002F0C890CFC00750C1E0AF600660D0C
:1051C8001E0AF5003C0CA50DF4002F0DBC0DDE00E9
:1051D800E2117B14DD0051131E0ADA008C0F940FC4
:1051E800D9009614A40FE200740E1E0AE100AF0E57
:1051F8001E0AE000240F1E0AD6007A181E0AD500DF
:1052080031111E0AD400BD101E0AD3002E101E0A2A
:10521800C000B30F1E0AF000E3181E0AED00A01824
:105228001E0A00000000F7262728A726D826792678
:04523800932685260E
:00000001FF
